:020000020000FC
:100000000C9404000E94240001E20EBF0FEF0DBF0C
:1000100000270FEF01B900E00AB901E10093690080
:10002000002701E00DBB7894002701E002B900E051
:1000300002B900270E941D00F8CF1AEF1A95F1F7B8
:1000400018E21A95F1F7089500E002B940E04093F4
:10005000800043E04093810040E04093820049B13A
:1000600040FDFDCF90918400A09185007DE281E06C
:10007000A81720F50000971708F5000034E032B902
:10008000332733E0939F14E622E3302D1A95F1F7DE
:10009000000014E62A95D1F722E33A95B9F730E04B
:1000A00032B9332714E62BE4302D1A95F1F700000E
:1000B00014E62A95D1F72BE43A95B9F740E040933E
:1000C0008100409385004093840000E002B91895B8
:00000001FF
